{
  "contractName": "StickerStore",
  "abi": [
    {
      "constant": true,
      "inputs": [
        {
          "name": "",
          "type": "uint256"
        }
      ],
      "name": "stickerList",
      "outputs": [
        {
          "name": "",
          "type": "address"
        }
      ],
      "payable": false,
      "stateMutability": "view",
      "type": "function"
    },
    {
      "constant": false,
      "inputs": [
        {
          "name": "_stickerAddress",
          "type": "address"
        }
      ],
      "name": "addAddressToStickerList",
      "outputs": [],
      "payable": false,
      "stateMutability": "nonpayable",
      "type": "function"
    },
    {
      "constant": true,
      "inputs": [],
      "name": "getAllStickerList",
      "outputs": [
        {
          "name": "",
          "type": "address[]"
        }
      ],
      "payable": false,
      "stateMutability": "view",
      "type": "function"
    }
  ],
  "bytecode": "0x608060405234801561001057600080fd5b506102d5806100206000396000f3fe608060405234801561001057600080fd5b506004361061005e576000357c0100000000000000000000000000000000000000000000000000000000900480635d248bfa14610063578063dee69f0e146100a7578063f437ff9a14610106575b600080fd5b6100a56004803603602081101561007957600080fd5b81019080803573ffffffffffffffffffffffffffffffffffffffff169060200190929190505050610174565b005b6100af6101dd565b6040518080602001828103825283818151815260200191508051906020019060200280838360005b838110156100f25780820151818401526020810190506100d7565b505050509050019250505060405180910390f35b6101326004803603602081101561011c57600080fd5b810190808035906020019092919050505061026b565b604051808273ffffffffffffffffffffffffffffffffffffffff1673ffffffffffffffffffffffffffffffffffffffff16815260200191505060405180910390f35b60008190806001815401808255809150509060018203906000526020600020016000909192909190916101000a81548173ffffffffffffffffffffffffffffffffffffffff021916908373ffffffffffffffffffffffffffffffffffffffff1602179055505050565b6060600080548060200260200160405190810160405280929190818152602001828054801561026157602002820191906000526020600020905b8160009054906101000a900473ffffffffffffffffffffffffffffffffffffffff1673ffffffffffffffffffffffffffffffffffffffff1681526020019060010190808311610217575b5050505050905090565b60008181548110151561027a57fe5b906000526020600020016000915054906101000a900473ffffffffffffffffffffffffffffffffffffffff168156fea165627a7a72305820cef67d736ddfadc1c28ae442a285497a18e68d66b357fba3fb7f11f53e91657f0029",
  "source": "pragma solidity ^0.5.2;\n\ncontract StickerStore {\n\n  address[] public stickerList;\n\n  // event RoomCreated(\n  //   address indexed _creator,\n  //   Room _room,\n  //   uint _depositedValue\n  // );\n  //\n  // function createRoom(string memory _theme) public payable {\n  //   Room newRoom = (new Room).value(msg.value)(msg.sender, _theme);\n  //   roomList.push(newRoom.getAddress());\n  //   emit RoomCreated(msg.sender, newRoom, msg.value);\n  // }\n\n  function addAddressToStickerList(address _stickerAddress) public {\n      stickerList.push(_stickerAddress);\n  }\n\n  function getAllStickerList() public view returns (address[] memory) {\n    return stickerList;\n  }\n}\n",
  "sourcePath": "/Users/motoaki/Documents/TruffleProjects/hackathon_DecriptTokyo/contracts/StickerStore.sol",
  "compiler": {
    "name": "solc",
    "version": "0.5.2+commit.1df8f40c.Emscripten.clang"
  },
  "schemaVersion": "3.0.10",
  "updatedAt": "2019-06-08T03:11:08.494Z",
  "devdoc": {
    "methods": {}
  },
  "userdoc": {
    "methods": {}
  }
}