{
  "contractName": "StickerStore",
  "abi": [
    {
      "constant": true,
      "inputs": [
        {
          "name": "",
          "type": "uint256"
        }
      ],
      "name": "stickerList",
      "outputs": [
        {
          "name": "",
          "type": "address"
        }
      ],
      "payable": false,
      "stateMutability": "view",
      "type": "function"
    },
    {
      "constant": false,
      "inputs": [
        {
          "name": "_name",
          "type": "string"
        },
        {
          "name": "_description",
          "type": "string"
        },
        {
          "name": "_image",
          "type": "string"
        }
      ],
      "name": "createSticker",
      "outputs": [],
      "payable": false,
      "stateMutability": "nonpayable",
      "type": "function"
    },
    {
      "constant": false,
      "inputs": [
        {
          "name": "_stickerAddress",
          "type": "address"
        }
      ],
      "name": "addAddressToStickerList",
      "outputs": [],
      "payable": false,
      "stateMutability": "nonpayable",
      "type": "function"
    },
    {
      "constant": true,
      "inputs": [],
      "name": "getAllStickerList",
      "outputs": [
        {
          "name": "",
          "type": "address[]"
        }
      ],
      "payable": false,
      "stateMutability": "view",
      "type": "function"
    }
  ],
  "bytecode": "0x608060405234801561001057600080fd5b5061142e806100206000396000f3fe608060405234801561001057600080fd5b5060043610610069576000357c0100000000000000000000000000000000000000000000000000000000900480635d248bfa1461006e578063ab6b8cc5146100b2578063dee69f0e1461029b578063f437ff9a146102fa575b600080fd5b6100b06004803603602081101561008457600080fd5b81019080803573ffffffffffffffffffffffffffffffffffffffff169060200190929190505050610368565b005b610299600480360360608110156100c857600080fd5b81019080803590602001906401000000008111156100e557600080fd5b8201836020820111156100f757600080fd5b8035906020019184600183028401116401000000008311171561011957600080fd5b91908080601f016020809104026020016040519081016040528093929190818152602001838380828437600081840152601f19601f8201169050808301925050505050505091929192908035906020019064010000000081111561017c57600080fd5b82018360208201111561018e57600080fd5b803590602001918460018302840111640100000000831117156101b057600080fd5b91908080601f016020809104026020016040519081016040528093929190818152602001838380828437600081840152601f19601f8201169050808301925050505050505091929192908035906020019064010000000081111561021357600080fd5b82018360208201111561022557600080fd5b8035906020019184600183028401116401000000008311171561024757600080fd5b91908080601f016020809104026020016040519081016040528093929190818152602001838380828437600081840152601f19601f8201169050808301925050505050505091929192905050506103d1565b005b6102a361064c565b6040518080602001828103825283818151815260200191508051906020019060200280838360005b838110156102e65780820151818401526020810190506102cb565b505050509050019250505060405180910390f35b6103266004803603602081101561031057600080fd5b81019080803590602001909291905050506106da565b604051808273ffffffffffffffffffffffffffffffffffffffff1673ffffffffffffffffffffffffffffffffffffffff16815260200191505060405180910390f35b60008190806001815401808255809150509060018203906000526020600020016000909192909190916101000a81548173ffffffffffffffffffffffffffffffffffffffff021916908373ffffffffffffffffffffffffffffffffffffffff1602179055505050565b60008383836103de610718565b80806020018060200180602001848103845287818151815260200191508051906020019080838360005b83811015610423578082015181840152602081019050610408565b50505050905090810190601f1680156104505780820380516001836020036101000a031916815260200191505b50848103835286818151815260200191508051906020019080838360005b8381101561048957808201518184015260208101905061046e565b50505050905090810190601f1680156104b65780820380516001836020036101000a031916815260200191505b50848103825285818151815260200191508051906020019080838360005b838110156104ef5780820151818401526020810190506104d4565b50505050905090810190601f16801561051c5780820380516001836020036101000a031916815260200191505b509650505050505050604051809103906000f080158015610541573d6000803e3d6000fd5b50905060008173ffffffffffffffffffffffffffffffffffffffff166338cc48316040518163ffffffff167c010000000000000000000000000000000000000000000000000000000002815260040160206040518083038186803b1580156105a857600080fd5b505afa1580156105bc573d6000803e3d6000fd5b505050506040513d60208110156105d257600080fd5b810190808051906020019092919050505090806001815401808255809150509060018203906000526020600020016000909192909190916101000a81548173ffffffffffffffffffffffffffffffffffffffff021916908373ffffffffffffffffffffffffffffffffffffffff1602179055505050505050565b606060008054806020026020016040519081016040528092919081815260200182805480156106d057602002820191906000526020600020905b8160009054906101000a900473ffffffffffffffffffffffffffffffffffffffff1673ffffffffffffffffffffffffffffffffffffffff1681526020019060010190808311610686575b5050505050905090565b6000818154811015156106e957fe5b906000526020600020016000915054906101000a900473ffffffffffffffffffffffffffffffffffffffff1681565b604051610cda806107298339019056fe60806040523480156200001157600080fd5b5060405162000cda38038062000cda833981018060405260608110156200003757600080fd5b8101908080516401000000008111156200005057600080fd5b828101905060208101848111156200006757600080fd5b81518560018202830111640100000000821117156200008557600080fd5b50509291906020018051640100000000811115620000a257600080fd5b82810190506020810184811115620000b957600080fd5b8151856001820283011164010000000082111715620000d757600080fd5b50509291906020018051640100000000811115620000f457600080fd5b828101905060208101848111156200010b57600080fd5b81518560018202830111640100000000821117156200012957600080fd5b5050929190505050336000800160006101000a81548173ffffffffffffffffffffffffffffffffffffffff021916908373ffffffffffffffffffffffffffffffffffffffff16021790555082600060010190805190602001906200018f929190620001d1565b508160006003019080519060200190620001ab929190620001d1565b508060006004019080519060200190620001c7929190620001d1565b5050505062000280565b828054600181600116156101000203166002900490600052602060002090601f016020900481019282601f106200021457805160ff191683800117855562000245565b8280016001018555821562000245579182015b828111156200024457825182559160200191906001019062000227565b5b50905062000254919062000258565b5090565b6200027d91905b80821115620002795760008160009055506001016200025f565b5090565b90565b610a4a80620002906000396000f3fe608060405234801561001057600080fd5b50600436106100a5576000357c01000000000000000000000000000000000000000000000000000000009004806338cc48311161007857806338cc483114610253578063438bd3381461029d578063893d20e81461042b578063f3651cbb14610475576100a5565b80630a3b0a4f146100aa57806317d7de7c146100ee5780631a09254114610171578063221a9d0c146101f4575b600080fd5b6100ec600480360360208110156100c057600080fd5b81019080803573ffffffffffffffffffffffffffffffffffffffff1690602001909291905050506104f8565b005b6100f6610564565b6040518080602001828103825283818151815260200191508051906020019080838360005b8381101561013657808201518184015260208101905061011b565b50505050905090810190601f1680156101635780820380516001836020036101000a031916815260200191505b509250505060405180910390f35b610179610609565b6040518080602001828103825283818151815260200191508051906020019080838360005b838110156101b957808201518184015260208101905061019e565b50505050905090810190601f1680156101e65780820380516001836020036101000a031916815260200191505b509250505060405180910390f35b6101fc6106ae565b6040518080602001828103825283818151815260200191508051906020019060200280838360005b8381101561023f578082015181840152602081019050610224565b505050509050019250505060405180910390f35b61025b61073f565b604051808273ffffffffffffffffffffffffffffffffffffffff1673ffffffffffffffffffffffffffffffffffffffff16815260200191505060405180910390f35b6102a5610747565b604051808573ffffffffffffffffffffffffffffffffffffffff1673ffffffffffffffffffffffffffffffffffffffff168152602001806020018060200180602001848103845287818151815260200191508051906020019080838360005b8381101561031f578082015181840152602081019050610304565b50505050905090810190601f16801561034c5780820380516001836020036101000a031916815260200191505b50848103835286818151815260200191508051906020019080838360005b8381101561038557808201518184015260208101905061036a565b50505050905090810190601f1680156103b25780820380516001836020036101000a031916815260200191505b50848103825285818151815260200191508051906020019080838360005b838110156103eb5780820151818401526020810190506103d0565b50505050905090810190601f1680156104185780820380516001836020036101000a031916815260200191505b5097505050505050505060405180910390f35b61043361094d565b604051808273ffffffffffffffffffffffffffffffffffffffff1673ffffffffffffffffffffffffffffffffffffffff16815260200191505060405180910390f35b61047d610979565b6040518080602001828103825283818151815260200191508051906020019080838360005b838110156104bd5780820151818401526020810190506104a2565b50505050905090810190601f1680156104ea5780820380516001836020036101000a031916815260200191505b509250505060405180910390f35b60006002018190806001815401808255809150509060018203906000526020600020016000909192909190916101000a81548173ffffffffffffffffffffffffffffffffffffffff021916908373ffffffffffffffffffffffffffffffffffffffff1602179055505050565b606060006001018054600181600116156101000203166002900480601f0160208091040260200160405190810160405280929190818152602001828054600181600116156101000203166002900480156105ff5780601f106105d4576101008083540402835291602001916105ff565b820191906000526020600020905b8154815290600101906020018083116105e257829003601f168201915b5050505050905090565b606060006003018054600181600116156101000203166002900480601f0160208091040260200160405190810160405280929190818152602001828054600181600116156101000203166002900480156106a45780601f10610679576101008083540402835291602001916106a4565b820191906000526020600020905b81548152906001019060200180831161068757829003601f168201915b5050505050905090565b6060600060020180548060200260200160405190810160405280929190818152602001828054801561073557602002820191906000526020600020905b8160009054906101000a900473ffffffffffffffffffffffffffffffffffffffff1673ffffffffffffffffffffffffffffffffffffffff16815260200190600101908083116106eb575b5050505050905090565b600030905090565b60008060000160009054906101000a900473ffffffffffffffffffffffffffffffffffffffff1690806001018054600181600116156101000203166002900480601f0160208091040260200160405190810160405280929190818152602001828054600181600116156101000203166002900480156108075780601f106107dc57610100808354040283529160200191610807565b820191906000526020600020905b8154815290600101906020018083116107ea57829003601f168201915b505050505090806003018054600181600116156101000203166002900480601f0160208091040260200160405190810160405280929190818152602001828054600181600116156101000203166002900480156108a55780601f1061087a576101008083540402835291602001916108a5565b820191906000526020600020905b81548152906001019060200180831161088857829003601f168201915b505050505090806004018054600181600116156101000203166002900480601f0160208091040260200160405190810160405280929190818152602001828054600181600116156101000203166002900480156109435780601f1061091857610100808354040283529160200191610943565b820191906000526020600020905b81548152906001019060200180831161092657829003601f168201915b5050505050905084565b60008060000160009054906101000a900473ffffffffffffffffffffffffffffffffffffffff16905090565b606060006004018054600181600116156101000203166002900480601f016020809104026020016040519081016040528092919081815260200182805460018160011615610100020316600290048015610a145780601f106109e957610100808354040283529160200191610a14565b820191906000526020600020905b8154815290600101906020018083116109f757829003601f168201915b505050505090509056fea165627a7a72305820a3ede48711bcf9ed2a0e1bdae02c3afa9d19fc3572d4561617f59081e255b6490029a165627a7a72305820950e94474106225c9bfb854a2fdebfddd1d8996b0714c8dc4eb119be285d2c450029",
  "source": "pragma solidity ^0.5.2;\n\nimport \"./Sticker.sol\";\n\ncontract StickerStore {\n\n  address[] public stickerList;\n\n  function createSticker(\n      string memory _name,\n      string memory _description,\n      string memory _image\n ) public {\n    Sticker newSticker  = new Sticker(_name, _description, _image);\n    stickerList.push(newSticker.getAddress());\n  }\n\n  function addAddressToStickerList(address _stickerAddress) public {\n      stickerList.push(_stickerAddress);\n  }\n\n  function getAllStickerList() public view returns (address[] memory) {\n    return stickerList;\n  }\n}\n",
  "sourcePath": "/Users/motoaki/Documents/TruffleProjects/hackathon_DecriptTokyo/contracts/StickerStore.sol",
  "compiler": {
    "name": "solc",
    "version": "0.5.2+commit.1df8f40c.Emscripten.clang"
  },
  "schemaVersion": "3.0.10",
  "updatedAt": "2019-06-08T09:10:35.801Z",
  "devdoc": {
    "methods": {}
  },
  "userdoc": {
    "methods": {}
  }
}