{
  "contractName": "StickerStore",
  "abi": [
    {
      "constant": true,
      "inputs": [
        {
          "name": "",
          "type": "uint256"
        }
      ],
      "name": "stickerList",
      "outputs": [
        {
          "name": "",
          "type": "address"
        }
      ],
      "payable": false,
      "stateMutability": "view",
      "type": "function"
    },
    {
      "constant": true,
      "inputs": [],
      "name": "getAllStickerList",
      "outputs": [
        {
          "name": "",
          "type": "address[]"
        }
      ],
      "payable": false,
      "stateMutability": "view",
      "type": "function"
    }
  ],
  "bytecode": "0x608060405234801561001057600080fd5b5061021d806100206000396000f3fe608060405234801561001057600080fd5b5060043610610053576000357c010000000000000000000000000000000000000000000000000000000090048063dee69f0e14610058578063f437ff9a146100b7575b600080fd5b610060610125565b6040518080602001828103825283818151815260200191508051906020019060200280838360005b838110156100a3578082015181840152602081019050610088565b505050509050019250505060405180910390f35b6100e3600480360360208110156100cd57600080fd5b81019080803590602001909291905050506101b3565b604051808273ffffffffffffffffffffffffffffffffffffffff1673ffffffffffffffffffffffffffffffffffffffff16815260200191505060405180910390f35b606060008054806020026020016040519081016040528092919081815260200182805480156101a957602002820191906000526020600020905b8160009054906101000a900473ffffffffffffffffffffffffffffffffffffffff1673ffffffffffffffffffffffffffffffffffffffff168152602001906001019080831161015f575b5050505050905090565b6000818154811015156101c257fe5b906000526020600020016000915054906101000a900473ffffffffffffffffffffffffffffffffffffffff168156fea165627a7a72305820c88e5250ac7f26e94eb7588b4ab32221db6498d55c123027436e1cd1da9789480029",
  "source": "pragma solidity ^0.5.2;\n\ncontract StickerStore {\n\n  address[] public stickerList;\n\n  // event RoomCreated(\n  //   address indexed _creator,\n  //   Room _room,\n  //   uint _depositedValue\n  // );\n  //\n  // function createRoom(string memory _theme) public payable {\n  //   Room newRoom = (new Room).value(msg.value)(msg.sender, _theme);\n  //   roomList.push(newRoom.getAddress());\n  //   emit RoomCreated(msg.sender, newRoom, msg.value);\n  // }\n\n  function getAllStickerList() public view returns (address[] memory) {\n    return stickerList;\n  }\n}\n",
  "sourcePath": "/Users/motoaki/Documents/TruffleProjects/hackathon_DecriptTokyo/contracts/StickerStore.sol",
  "compiler": {
    "name": "solc",
    "version": "0.5.2+commit.1df8f40c.Emscripten.clang"
  },
  "schemaVersion": "3.0.10",
  "updatedAt": "2019-06-08T02:53:39.790Z",
  "devdoc": {
    "methods": {}
  },
  "userdoc": {
    "methods": {}
  }
}